{
  "_format": "hh-sol-artifact-1",
  "contractName": "SimpleNotes",
  "sourceName": "contracts/SimpleNotes.sol",
  "abi": [
    {
      "inputs": [],
      "stateMutability": "nonpayable",
      "type": "constructor"
    },
    {
      "anonymous": false,
      "inputs": [
        {
          "indexed": false,
          "internalType": "uint256",
          "name": "id",
          "type": "uint256"
        },
        {
          "indexed": false,
          "internalType": "string",
          "name": "content",
          "type": "string"
        },
        {
          "indexed": true,
          "internalType": "address",
          "name": "owner",
          "type": "address"
        }
      ],
      "name": "NoteAdded",
      "type": "event"
    },
    {
      "anonymous": false,
      "inputs": [
        {
          "indexed": false,
          "internalType": "uint256",
          "name": "id",
          "type": "uint256"
        },
        {
          "indexed": true,
          "internalType": "address",
          "name": "owner",
          "type": "address"
        }
      ],
      "name": "NoteDeleted",
      "type": "event"
    },
    {
      "anonymous": false,
      "inputs": [
        {
          "indexed": false,
          "internalType": "uint256",
          "name": "id",
          "type": "uint256"
        },
        {
          "indexed": false,
          "internalType": "string",
          "name": "content",
          "type": "string"
        },
        {
          "indexed": true,
          "internalType": "address",
          "name": "owner",
          "type": "address"
        }
      ],
      "name": "NoteUpdated",
      "type": "event"
    },
    {
      "inputs": [
        {
          "internalType": "string",
          "name": "_content",
          "type": "string"
        }
      ],
      "name": "addNote",
      "outputs": [
        {
          "internalType": "uint256",
          "name": "",
          "type": "uint256"
        }
      ],
      "stateMutability": "nonpayable",
      "type": "function"
    },
    {
      "inputs": [
        {
          "internalType": "uint256",
          "name": "_id",
          "type": "uint256"
        }
      ],
      "name": "deleteNote",
      "outputs": [],
      "stateMutability": "nonpayable",
      "type": "function"
    },
    {
      "inputs": [],
      "name": "getAllNotes",
      "outputs": [
        {
          "components": [
            {
              "internalType": "uint256",
              "name": "id",
              "type": "uint256"
            },
            {
              "internalType": "string",
              "name": "content",
              "type": "string"
            },
            {
              "internalType": "bool",
              "name": "exists",
              "type": "bool"
            }
          ],
          "internalType": "struct SimpleNotes.Note[]",
          "name": "",
          "type": "tuple[]"
        }
      ],
      "stateMutability": "view",
      "type": "function"
    },
    {
      "inputs": [
        {
          "internalType": "uint256",
          "name": "_id",
          "type": "uint256"
        }
      ],
      "name": "getNote",
      "outputs": [
        {
          "internalType": "uint256",
          "name": "id",
          "type": "uint256"
        },
        {
          "internalType": "string",
          "name": "content",
          "type": "string"
        },
        {
          "internalType": "bool",
          "name": "exists",
          "type": "bool"
        }
      ],
      "stateMutability": "view",
      "type": "function"
    },
    {
      "inputs": [],
      "name": "nextId",
      "outputs": [
        {
          "internalType": "uint256",
          "name": "",
          "type": "uint256"
        }
      ],
      "stateMutability": "view",
      "type": "function"
    },
    {
      "inputs": [
        {
          "internalType": "uint256",
          "name": "",
          "type": "uint256"
        }
      ],
      "name": "notes",
      "outputs": [
        {
          "internalType": "uint256",
          "name": "id",
          "type": "uint256"
        },
        {
          "internalType": "string",
          "name": "content",
          "type": "string"
        },
        {
          "internalType": "bool",
          "name": "exists",
          "type": "bool"
        }
      ],
      "stateMutability": "view",
      "type": "function"
    },
    {
      "inputs": [
        {
          "internalType": "uint256",
          "name": "_id",
          "type": "uint256"
        },
        {
          "internalType": "string",
          "name": "_newContent",
          "type": "string"
        }
      ],
      "name": "updateNote",
      "outputs": [],
      "stateMutability": "nonpayable",
      "type": "function"
    }
  ],
  "bytecode": "0x6080604052348015600f57600080fd5b50600060018190555061134c806100276000396000f3fe608060405234801561001057600080fd5b506004361061007d5760003560e01c8063a4edff471161005b578063a4edff47146100ee578063a965a9411461011e578063c47177f414610150578063de8f430c1461016c5761007d565b806349781ef91461008257806361b8ce8c1461009e57806361c3a7e6146100bc575b600080fd5b61009c600480360381019061009791906109b9565b61018a565b005b6100a66102ae565b6040516100b39190610a28565b60405180910390f35b6100d660048036038101906100d19190610a43565b6102b4565b6040516100e593929190610b1b565b60405180910390f35b61010860048036038101906101039190610b59565b610373565b6040516101159190610a28565b60405180910390f35b61013860048036038101906101339190610a43565b6104ec565b60405161014793929190610b1b565b60405180910390f35b61016a60048036038101906101659190610a43565b6105bc565b005b61017461069d565b6040516101819190610d20565b60405180910390f35b60008084815260200190815260200160002060020160009054906101000a900460ff166101ec576040517f08c379a00000000000000000000000000000000000000000000000000000000081526004016101e390610d8e565b60405180910390fd5b60008282905011610232576040517f08c379a000000000000000000000000000000000000000000000000000000000815260040161022990610dfa565b60405180910390fd5b81816000808681526020019081526020016000206001019182610256929190611060565b503373ffffffffffffffffffffffffffffffffffffffff167f6b3eff4aacbe170254c993c4590fa37a8487d9f4853bff35fd725e87759ab9a78484846040516102a19392919061116c565b60405180910390a2505050565b60015481565b60006020528060005260406000206000915090508060000154908060010180546102dd90610e83565b80601f016020809104026020016040519081016040528092919081815260200182805461030990610e83565b80156103565780601f1061032b57610100808354040283529160200191610356565b820191906000526020600020905b81548152906001019060200180831161033957829003601f168201915b5050505050908060020160009054906101000a900460ff16905083565b60008083839050116103ba576040517f08c379a00000000000000000000000000000000000000000000000000000000081526004016103b190610dfa565b60405180910390fd5b60006001549050604051806060016040528082815260200185858080601f016020809104026020016040519081016040528093929190818152602001838380828437600081840152601f19601f82011690508083019250505050505050815260200160011515815250600080838152602001908152602001600020600082015181600001556020820151816001019081610454919061119e565b5060408201518160020160006101000a81548160ff0219169083151502179055509050506001600081548092919061048b9061129f565b91905055503373ffffffffffffffffffffffffffffffffffffffff167f1f52693e379a7d5aebc7adefaccda43ce70f96a5cc201a9e9a57d241aed0e61e8286866040516104da9392919061116c565b60405180910390a28091505092915050565b6000606060008060008086815260200190815260200160002090508060000154816001018260020160009054906101000a900460ff1681805461052e90610e83565b80601f016020809104026020016040519081016040528092919081815260200182805461055a90610e83565b80156105a75780601f1061057c576101008083540402835291602001916105a7565b820191906000526020600020905b81548152906001019060200180831161058a57829003601f168201915b50505050509150935093509350509193909250565b60008082815260200190815260200160002060020160009054906101000a900460ff1661061e576040517f08c379a000000000000000000000000000000000000000000000000000000000815260040161061590610d8e565b60405180910390fd5b600080600083815260200190815260200160002060020160006101000a81548160ff0219169083151502179055503373ffffffffffffffffffffffffffffffffffffffff167f728f066f4d1d424ab5f5a591aa40aa650fe607112cd483e67cf2816f8a9631d8826040516106929190610a28565b60405180910390a250565b6060600060015467ffffffffffffffff8111156106bd576106bc610e25565b5b6040519080825280602002602001820160405280156106f657816020015b6106e36108f1565b8152602001906001900390816106db5790505b5090506000805b60015481101561083d5760008082815260200190815260200160002060020160009054906101000a900460ff1615610830576000808281526020019081526020016000206040518060600160405290816000820154815260200160018201805461076690610e83565b80601f016020809104026020016040519081016040528092919081815260200182805461079290610e83565b80156107df5780601f106107b4576101008083540402835291602001916107df565b820191906000526020600020905b8154815290600101906020018083116107c257829003601f168201915b505050505081526020016002820160009054906101000a900460ff161515151581525050838381518110610816576108156112e7565b5b6020026020010181905250818061082c9061129f565b9250505b80806001019150506106fd565b5060008167ffffffffffffffff81111561085a57610859610e25565b5b60405190808252806020026020018201604052801561089357816020015b6108806108f1565b8152602001906001900390816108785790505b50905060005b828110156108e7578381815181106108b4576108b36112e7565b5b60200260200101518282815181106108cf576108ce6112e7565b5b60200260200101819052508080600101915050610899565b5080935050505090565b604051806060016040528060008152602001606081526020016000151581525090565b600080fd5b600080fd5b6000819050919050565b6109318161091e565b811461093c57600080fd5b50565b60008135905061094e81610928565b92915050565b600080fd5b600080fd5b600080fd5b60008083601f84011261097957610978610954565b5b8235905067ffffffffffffffff81111561099657610995610959565b5b6020830191508360018202830111156109b2576109b161095e565b5b9250929050565b6000806000604084860312156109d2576109d1610914565b5b60006109e08682870161093f565b935050602084013567ffffffffffffffff811115610a0157610a00610919565b5b610a0d86828701610963565b92509250509250925092565b610a228161091e565b82525050565b6000602082019050610a3d6000830184610a19565b92915050565b600060208284031215610a5957610a58610914565b5b6000610a678482850161093f565b91505092915050565b600081519050919050565b600082825260208201905092915050565b60005b83811015610aaa578082015181840152602081019050610a8f565b60008484015250505050565b6000601f19601f8301169050919050565b6000610ad282610a70565b610adc8185610a7b565b9350610aec818560208601610a8c565b610af581610ab6565b840191505092915050565b60008115159050919050565b610b1581610b00565b82525050565b6000606082019050610b306000830186610a19565b8181036020830152610b428185610ac7565b9050610b516040830184610b0c565b949350505050565b60008060208385031215610b7057610b6f610914565b5b600083013567ffffffffffffffff811115610b8e57610b8d610919565b5b610b9a85828601610963565b92509250509250929050565b600081519050919050565b600082825260208201905092915050565b6000819050602082019050919050565b610bdb8161091e565b82525050565b600082825260208201905092915050565b6000610bfd82610a70565b610c078185610be1565b9350610c17818560208601610a8c565b610c2081610ab6565b840191505092915050565b610c3481610b00565b82525050565b6000606083016000830151610c526000860182610bd2565b5060208301518482036020860152610c6a8282610bf2565b9150506040830151610c7f6040860182610c2b565b508091505092915050565b6000610c968383610c3a565b905092915050565b6000602082019050919050565b6000610cb682610ba6565b610cc08185610bb1565b935083602082028501610cd285610bc2565b8060005b85811015610d0e5784840389528151610cef8582610c8a565b9450610cfa83610c9e565b925060208a01995050600181019050610cd6565b50829750879550505050505092915050565b60006020820190508181036000830152610d3a8184610cab565b905092915050565b7f4e6f746520646f6573206e6f7420657869737400000000000000000000000000600082015250565b6000610d78601383610a7b565b9150610d8382610d42565b602082019050919050565b60006020820190508181036000830152610da781610d6b565b9050919050565b7f436f6e74656e742063616e6e6f7420626520656d707479000000000000000000600082015250565b6000610de4601783610a7b565b9150610def82610dae565b602082019050919050565b60006020820190508181036000830152610e1381610dd7565b9050919050565b600082905092915050565b7f4e487b7100000000000000000000000000000000000000000000000000000000600052604160045260246000fd5b7f4e487b7100000000000000000000000000000000000000000000000000000000600052602260045260246000fd5b60006002820490506001821680610e9b57607f821691505b602082108103610eae57610ead610e54565b5b50919050565b60008190508160005260206000209050919050565b60006020601f8301049050919050565b600082821b905092915050565b600060088302610f167fffffffffffffffffffffffffffffffffffffffffffffffffffffffffffffffff82610ed9565b610f208683610ed9565b95508019841693508086168417925050509392505050565b6000819050919050565b6000610f5d610f58610f538461091e565b610f38565b61091e565b9050919050565b6000819050919050565b610f7783610f42565b610f8b610f8382610f64565b848454610ee6565b825550505050565b600090565b610fa0610f93565b610fab818484610f6e565b505050565b5b81811015610fcf57610fc4600082610f98565b600181019050610fb1565b5050565b601f82111561101457610fe581610eb4565b610fee84610ec9565b81016020851015610ffd578190505b61101161100985610ec9565b830182610fb0565b50505b505050565b600082821c905092915050565b600061103760001984600802611019565b1980831691505092915050565b60006110508383611026565b9150826002028217905092915050565b61106a8383610e1a565b67ffffffffffffffff81111561108357611082610e25565b5b61108d8254610e83565b611098828285610fd3565b6000601f8311600181146110c757600084156110b5578287013590505b6110bf8582611044565b865550611127565b601f1984166110d586610eb4565b60005b828110156110fd578489013582556001820191506020850194506020810190506110d8565b8683101561111a5784890135611116601f891682611026565b8355505b6001600288020188555050505b50505050505050565b82818337600083830152505050565b600061114b8385610a7b565b9350611158838584611130565b61116183610ab6565b840190509392505050565b60006040820190506111816000830186610a19565b818103602083015261119481848661113f565b9050949350505050565b6111a782610a70565b67ffffffffffffffff8111156111c0576111bf610e25565b5b6111ca8254610e83565b6111d5828285610fd3565b600060209050601f83116001811461120857600084156111f6578287015190505b6112008582611044565b865550611268565b601f19841661121686610eb4565b60005b8281101561123e57848901518255600182019150602085019450602081019050611219565b8683101561125b5784890151611257601f891682611026565b8355505b6001600288020188555050505b505050505050565b7f4e487b7100000000000000000000000000000000000000000000000000000000600052601160045260246000fd5b60006112aa8261091e565b91507fffffffffffffffffffffffffffffffffffffffffffffffffffffffffffffffff82036112dc576112db611270565b5b600182019050919050565b7f4e487b7100000000000000000000000000000000000000000000000000000000600052603260045260246000fdfea26469706673582212206b796137eb8dc695ccfcde7dae2cabde4fff2565076d32be154457b8f4589cb664736f6c634300081c0033",
  "linkReferences": {},
  "deployedLinkReferences": {}
}